:020000040800F2
:10000000D008002029020008CF250008E71C0008BE
:10001000CD25000831040008DD2C00080000000098
:100020000000000000000000000000006F26000833
:1000300033040008000000006D2600087126000847
:100040004D0200084D0200084D0200084D02000854
:100050004D0200084D0200084D0200084D02000844
:100060004D0200084D0200084D0200084D02000834
:100070004D0200084D0200084D0200084D02000824
:100080004D0200084D0200084D0200084D02000814
:100090004D0200084D0200084D0200084D02000804
:1000A0004D020008192700084D0200084D02000803
:1000B0004D0200084D0200084D0200084D020008E4
:1000C0004D0200084D0200084D0200084D020008D4
:1000D0004D0200084D020008D12C00084D02000816
:1000E0004D0200084D0200084D0200084D020008B4
:1000F0004D0200084D0200084D0200084D020008A4
:100100004D0200084D0200084D0200084D02000893
:100110004D0200084D0200084D0200084D02000883
:100120004D0200084D0200084D0200084D02000873
:100130004D0200084D0200084D0200084D02000863
:100140004D0200084D0200084D0200084D02000853
:100150004D0200084D0200084D0200084D02000843
:100160004D0200084D0200084D0200084D02000833
:100170004D0200084D0200084D0200084D02000823
:100180004D0200084D02000800F002F800F03CF8B3
:100190000AA090E8000C82448344AAF10107DA45E2
:1001A00001D100F031F8AFF2090EBAE80F0013F0F8
:1001B000010F18BFFB1A43F001031847C83F0000A6
:1001C000E83F0000103A24BF78C878C1FAD8520737
:1001D00024BF30C830C144BF04680C6070470000C1
:1001E0000023002400250026103A28BF78C1FBD840
:1001F000520728BF30C148BF0B6070471FB503F0DE
:10020000AAFF1FBD10B510BD00F0DCF81146FFF7C6
:10021000F5FF02F0E3FD00F0FAF803B4FFF7F2FF98
:1002200003BC00F0FFF800000C48016841F47001C5
:1002300001600B4880470B480047FEE7FEE7FEE7FA
:10024000FEE7FEE7FEE7FEE7FEE7FEE7FEE700006B
:1002500005480649064A074B7047000088ED00E054
:100260000927000889010008D0020020D0080020DA
:10027000D0040020D004002053EA020C00F0698072
:100280002DE9F04B4FF00006002B1FBFB3FA83F5AA
:1002900003FA05F424FA05F65E4012BF1643B2FADB
:1002A00082F502FA05F4C5F120051EBF22FA05FC0D
:1002B00044EA0C04203556EA044C4FEA144418BFB3
:1002C000641C4FF000084FF00009904271EB030CE2
:1002D00039D3002919BFB1FA81F701FA07F6B0FA4C
:1002E00080F700FA07F6C7F120071EBF20FA07FCC7
:1002F00046EA0C062037B6FBF4FCA7EB0507103FD7
:1003000007F01F0BCBF120060CFA0BFB2CFA06F6BC
:1003100044BFB3460026202FA4BF5E464FF0000B1B
:100320005BEA060C08BF4FF0010B19EB0B09ABFBA6
:10033000027C48EB0608C01B06FB02CC0BFB03CC7F
:1003400071EB0C01C1E70B46024641464846BDE849
:10035000F08B13B54FF000004FF00001AFF30080B9
:10036000BDE81C4070474FF0000200B513469446AC
:100370009646203922BFA0E80C50A0E80C50B1F1FD
:100380002001BFF4F7AF090728BFA0E80C5048BF11
:100390000CC05DF804EB890028BF40F8042B08BFAF
:1003A000704748BF20F8022B11F0804F18BF00F8AB
:1003B000012B704770477047704700000048704736
:1003C0006C0200207546FFF7F9FFAE46050069464E
:1003D000534620F00700854618B020B5FFF738FFD8
:1003E000BDE820404FF000064FF000074FF0000836
:1003F0004FF0000B21F00701AC46ACE8C009ACE8B7
:10040000C009ACE8C009ACE8C0098D46704710B51A
:100410000446AFF300802046BDE81040FFF7FDBE64
:100420007047000001491820ABBEFEE7260002001D
:10043000FEE7704772B6FEE72DE9F0410446876D8E
:1004400000F072F9064694F835000025022806D01F
:100450008020606584F834500120BDE8F081206878
:10046000016821F0160101602068416921F08001D6
:100470004161206C08B9A06C20B12068016821F0AE
:10048000080101602068016821F0010101600CE0B1
:1004900000F04AF9801B052807D920206065032059
:1004A00084F8350084F83450D7E720680068C00726
:1004B000EED194F85C103F208840B860012084F8A9
:1004C000350084F834500020C7E790F83510022931
:1004D00003D08021416501207047052180F8351047
:1004E0000068016821F001010160002070470000F0
:1004F00070B5044600F018F90546601C02D00448A7
:100500000078044400F010F9401BA042FAD370BDFB
:100510001C0000202DE9F84FDFF8BCA100220125C6
:1005200003264FF00F090AF1040BAAF1040E00BFD5
:100530000B6805FA02F42340A34270D10F7907F04B
:100540000307012F01D0022F16D187684FEA420816
:1005500006FA08FC27EA0C07D1F80CC00CFA08FCD4
:100560004CEA070CC0F808C04768A7430C79C4F3ED
:10057000001494403C4344600C79E443A4070AD03F
:10058000C4684FEA420C06FA0CF7BC438F6807FABE
:100590000CF72743C7600C7904F00304022C12D136
:1005A000D40800EB840CDCF820405707FF0E09FA52
:1005B00007F824EA0804D1F8108008FA07F848EA96
:1005C0000408CCF8208004684FEA420C06FA0CF7C5
:1005D000BC430F7907F0030707FA0CF727430760BE
:1005E0004C6814F4403F70D03C4C276847F4804777
:1005F0002760246822F0030704F480440094384CF8
:1006000007EB040CDCF8084897074FEA177809FA5B
:1006100008F7BC43334FB84202D1002724E054E02E
:10062000314FB84201D101271EE0304FB84201D10D
:10063000022719E02E4FB84201D1032714E02D4FB5
:10064000B84201D104270FE02B4FB84201D1052752
:100650000AE02A4FB84201D1062705E0284FB842E8
:1006600001D1072700E0082707FA08F72743CCF84D
:100670000878DAF800405746D1F804C09C435FEA96
:10068000CC2C00D51C433C60DBF800405F46D1F821
:1006900004C09C435FEA8C2C00D51C433C60DEF810
:1006A00000407746D1F804C09C435FEA8C3C00D5FB
:1006B0001C433C60084F083F3C68D1F804C09C4391
:1006C0005FEACC3C00D51C433C60521C102AFFF46E
:1006D0002FAFBDE8F88F0000083C014044380240CD
:1006E00000300140000002400004024000080240C7
:1006F000000C0240001002400014024000180240AA
:10070000001C02400069084000D001207047426987
:1007100021EA02030A4043EA0241816170470AB1BB
:10072000816170470904FBE7014880687047000059
:100730001C00002070B5040025D094F83D00002571
:1007400020B984F83C50204600F050F9242084F869
:100750003D002068016821F0010101602068016806
:1007600041F4004101602068016821F4004101600A
:1007700000F0A4FA4D4A6168914201D84C4900E06A
:100780004C49884201D2012070BD4B492368B0FB1F
:10079000F1F15E6826F03F060E435E6063689342A7
:1007A00006D94FF4967359434FF47A73B1FBF3F1C2
:1007B0002368491C1E6A26F03F06314319626168AE
:1007C000914210D84900401EB0FBF1F2521CC2F316
:1007D0000B02042A01D2042022E0B0FBF1F0401CFD
:1007E000C0F30B001CE0A268F2B301EBC10303EB02
:1007F0000116431EB3FBF6F35B1C43F480431B0559
:1008000049D092B301EBC10202EB0111401EB0FBD3
:10081000F1F0401CC0F30B0040F4804040F4004075
:100820002168CA694CF6FF739A431043C861D4E942
:10083000071001432068026822F0C00211430160E2
:10084000D4E9030101432068826848F2FF339A43E8
:1008500011438160D4E9050108432168CA6822F088
:10086000FF021043C86001E00EE016E02068016856
:1008700041F0010101602564202084F83D002563DA
:1008800084F83E50002070BD01EB4106431EB3FBCF
:10089000F6F35B1CB3E70120C2E701EB4101401E08
:1008A000B0FBF1F0401CC0F30B00B7E7A0860100DD
:1008B00080841E0000093D0040420F002DE9FF4FDB
:1008C00083B09A46DDE9119793460446DDF84080EF
:1008D000FFF72AFF054694F83D0020287FD1192311
:1008E000012240492046009501F096FA002876D171
:1008F00094F83C00012872D0012084F83C00206864
:100900000168C90703D1016841F001010160206855
:10091000016821F400610160212084F83D0040203D
:1009200084F83E0000262664C4F82480A4F82A90A7
:10093000608D20852C48E062CDE9007553465A460B
:100940002046049901F0E8F970B930E02A463946AA
:10095000204601F007FB58B1206C042804D1206820
:10096000016841F400710160012007B0BDE8F08F1B
:10097000606A216800780861606A401C6062218DAD
:10098000491E89B22185628D521E62852268536993
:10099000DB435B070BD469B100781061606A401CCF
:1009A0006062208D401E2085608D401E6085208DF8
:1009B0000028CBD12A463946204601F001FA00280A
:1009C000CAD154F83D0B016841F400710160202048
:1009D00004F81E09E67766770020C6E7FFE70220E5
:1009E000C3E70000020010000000FFFF10B586B052
:1009F000044614216846FFF7B6FC13492068884274
:100A000020D112480021026842F002020260006810
:100A100000F002000590C02000901220CDE90101F5
:100A2000032003900420049069460948FFF772FDF3
:100A300006481030016841F400110160006800F4BC
:100A40000010059006B010BD005400403038024040
:100A500000040240024881680278114481607047B6
:100A60001C0000200B4810B5016841F400710160C2
:100A7000016841F480610160016841F480710160A6
:100A8000032000F06FF80F2000F006F800F024F8C3
:100A9000002010BD003C024070B50D4D04464FF4DF
:100AA0007A712878B1FBF0F00A490968B1FBF0F0DF
:100AB00000F00AFB48B9102C07D200222146501E34
:100AC00000F030F800206C6070BD012070BD0000A7
:100AD0001C000020280000200A4808B5016841F4E5
:100AE00080410160006800F4804000900548001FCC
:100AF000016841F080510160006800F08050009072
:100B000008BD000044380240002809DB00F01F0245
:100B1000012191404009800000F1E020C0F800115F
:100B200070470000F0B40E4B1B680C46C3F3022361
:100B3000C3F10705042D00D90425191D072901D289
:100B4000002300E0DB1E012606FA05F1491E2140C4
:100B500099409E40761E16403143F0BC02F0BFB86B
:100B60000CED00E0064900F0070208684FF6FF03AD
:100B7000184040EA0220034A104308607047000012
:100B80000CED00E00000FA052DE9F0470E460500E7
:100B900065D0DFF81481D8F80000F7B200F0070044
:100BA000B04207D288F80070D8F8000000F00700C3
:100BB000B04254D128683D4C810712D5400703D577
:100BC000206840F4E05020602878000703D52068B2
:100BD00040F4604020602068A96820F0F0000843DD
:100BE00020602878C0072DD030496868083901286E
:100BF00012D0022813D0032811D0096889070029D0
:100C00002DDA216821F0030101432160FFF78CFDFB
:100C1000814641F2883A0EE009688903EFE70968E6
:100C20008901ECE7FFF780FDA0EB0901514502D9EE
:100C30000320BDE8F0872068696800F00C00B0EB85
:100C4000810FEFD1D8F80010404601F00701B14202
:100C500007D90770006800F00700B04201D00120FA
:100C6000E7E72878400705D52068E96820F4E050D8
:100C7000084320602878000706D52068296920F4F9
:100C8000604040EAC100206000F038F82168084A5E
:100C9000C1F30311515CC84006490860064800686A
:100CA000FFF7FAFE0020C4E7003C0240083802408B
:100CB0006A4100082800002020000020044805495F
:100CC00000680968044AC1F38221515CC84070473A
:100CD00028000020083802407A41000804480549ED
:100CE00000680968044AC1F34231515CC84070474A
:100CF00028000020083802407A410008154810B545
:100D0000006810F00C02144813D04110042A0FD0D0
:100D1000082A0ED10F4C241F2268236802F03F02DC
:100D20005B0207D52068C0F38810A0FB010106E034
:100D3000084610BD2168C1F38811A1FB0001002302
:100D4000FFF79AFA2168C1F30141491C4900B0FB41
:100D5000F1F010BD083802400024F4002DE9F84FEE
:100D600004006ED02078DFF84C93C007A9F1040589
:100D70004AD009F104000168C1F38101012908D0BA
:100D80000068C0F3810002280AD1D9F800004002AF
:100D900006D52868800337D560680028E1D033E0A5
:100DA0006068B0F5803F10D0B0F5A02F286810D053
:100DB00020F480302860286820F480202860606853
:100DC000A8B1FFF7B1FC06460DE0286840F480307A
:100DD000F4E740F480202860F7E700BFFFF7A4FCA9
:100DE000801B642873D828688003F7D50CE0FFF7D0
:100DF0009BFC064605E000BFFFF796FC801B6428BD
:100E0000F0D828688003F7D42078DFF8AC82800718
:100E10004FF0000A3ED5A748001D016811F00C0FE5
:100E200008D00068C0F3810002280BD1D9F8000077
:100E3000400207D42868800716D5E068012800D151
:100E400012E033E1E068B8B10120C8F80000FFF714
:100E50006BFC064605E000BFFFF766FC801B02281E
:100E6000C0D828688007F7D52868216920F0F800E5
:100E700040EAC10028600DE0C8F800A0FFF754FC6C
:100E8000064604E0FFF750FC801B02281FD82868A4
:100E90008007F7D42078000722D5864F87486169FC
:100EA000703771B101210160FFF73EFC064604E096
:100EB000FFF73AFC801B022809D838688007F7D56D
:100EC0000EE0C0F800A0FFF72FFC064605E082E028
:100ED000FFF72AFC801B02287DD838688007F7D4EA
:100EE0002078400768D5DFF8CCB100270BF13C0B28
:100EF000DBF80000C0000BD4DBF8001041F080519B
:100F0000CBF80010DBF80000012700F080500090C3
:100F10006B4E3068C00510D4306840F4807030608B
:100F2000FFF702FC009005E0FFF7FEFB0099401A76
:100F3000022850D83068C005F6D55E4EA0686C36E1
:100F400001280FD00528306810D020F00100306053
:100F5000306820F004003060A068B8B1FFF7E4FB0F
:100F600000900FE0306840F00100F4E740F004002A
:100F70003060F7E7FFF7D8FB0099411A41F288305B
:100F8000814266D830688007F4D50EE0FFF7CCFBCD
:100F9000009007E0FFF7C8FB0099411A41F2883042
:100FA000814256D830688007F4D42FB1DBF80010A6
:100FB00021F08051CBF80010A069C8B33D49091D4C
:100FC0000968C1F3810102294AD00228504607D09E
:100FD000C8F8600000E03CE0FFF7A6FB04463BE0F9
:100FE0004746C8F86000FFF79FFB064605E000BFD4
:100FF000FFF79AFB801B02282BD828688001F7D4C2
:10100000D4E907010843A16A2E4A490802EB0141CD
:10101000626A41EA8211084394F82C1040EA0161A7
:10102000C9F8001001203866FFF77EFB044606E091
:101030003EE000BFFFF778FB001B022809D82868B4
:101040008001F7D534E000BFFFF76EFB001B0228DC
:1010500002D90320BDE8F88F28688001F4D427E086
:101060000128F7D0D9F80000E26900F4800191422C
:101070001CD1226A00F03F01914217D147F6C0719E
:10108000626A0140B1EB821F10D1A26A4FF0FF33B8
:1010900000F4403103EB5202B1EB024F06D194F859
:1010A0002C1000F07060B0EB016F01D00120D1E78F
:1010B0000020CFE70438024000004742800E47423C
:1010C000007000400000FFFF10B5401EB0F1807FAF
:1010D00001D3012010BD4FF0E02460610F216017A3
:1010E00001F0FDFD0020A06107202061002010BD5F
:1010F0007047704770B590F83C20012A32D0012427
:1011000080F83C40022280F83D2003685A689D68C0
:1011100022F070060A6832435A60134B02689A4202
:1011200014D0B2F1804F11D0104B9A420ED0104B18
:101130009A420BD00F4B9A4208D00F4B9A4205D0DF
:101140000E4B9A4202D00E4B9A4204D1496825F0C8
:1011500080031943916080F83D40002180F83C10E5
:10116000084670BD022070BD000001400004004030
:1011700000080040000C0040000401400040014015
:101180000018004010B5040003D094F83D0010B1E1
:1011900007E0012010BD002084F83C00204600F04C
:1011A0001FF8022084F83D00211D206801F0BAFAE2
:1011B000012084F8460084F83E0084F83F0084F85B
:1011C000400084F8410084F8420084F8430084F829
:1011D000440084F8450084F83D00002010BD000064
:1011E00008B501681748814212D11748016841F0DB
:1011F000010101600068002200F00100009011462A
:101200001920FFF78FFCBDE808401920FFF77CBCD0
:101210000D48001FB1F1804F0BD00C4A914207D10D
:10122000016841F002010160006800F002000090D6
:1012300008BD016841F001010160006800F0010093
:10124000F5E700000000014044380240000400407F
:1012500090F83D10012901D001207047022180F84B
:101260003D100168CA6842F00102CA600068114975
:10127000884214D0B0F1804F11D00F4988420ED06F
:101280000E4988420BD00E49884208D00D49884249
:1012900005D00D49884202D00C49884204D18168AA
:1012A00001F00701062903D0016841F00101016046
:1012B000002070470000014000040040000800408A
:1012C000000C0040000401400040014000180040B4
:1012D00070B5044690F83C000025012817D001267F
:1012E00084F83C60022084F83D002068826822F087
:1012F000770222F47F4282600868502838D00DDCE3
:1013000020284FD005DC90B3102811D14AE00220EC
:1013100070BD302846D040280AD13BE060282FD04D
:1013200070280DD0B0F5805F03D0B0F5005F12D00B
:10133000012584F83D60002084F83C00284670BDFB
:10134000CB68D1E90121206801F061FA2068816849
:1013500041F0770109E0CB68D1E90121206801F073
:1013600056FA2068816841F480418160E1E719E024
:10137000CA684968206801F01FFB5021206806E018
:10138000CA684968206801F028FB6021206801F0E4
:1013900048FACEE7CA684968206801F00DFB402191
:1013A0002068F4E7226801461046F0E770472DE90F
:1013B000F04104460068C66805694FF00007A907B8
:1013C00013D5B10711D5F91E0161012020772068DE
:1013D00080698007204602D0FFF7E8FF04E000F0B4
:1013E000D1F8204600F063F92777680716D5700713
:1013F00014D521686FF0040008610220207720686E
:10140000806910F4407F204602D0FFF7CFFF04E050
:1014100000F0B8F8204600F04AF92777280715D5DC
:10142000300713D521686FF0080008610420207789
:101430002068C0698007204602D0FFF7B7FF04E0AC
:1014400000F0A0F8204600F032F92777E80616D51C
:10145000F00614D521686FF010000861082020778D
:101460002068C06910F4407F204602D0FFF79EFF3D
:1014700004E000F087F8204600F019F92777E80724
:1014800008D0F00706D021686FF0010008612046FF
:1014900000F072F9280608D5300606D521686FF0ED
:1014A000800008612046FFF723FE680608D5700615
:1014B00006D521686FF040000861204600F0C6F9AB
:1014C000A8060AD5B00608D521686FF0200008618B
:1014D0002046BDE8F041FFF70CBEBDE8F0810000FA
:1014E00030B587B0044614216846FEF73CFF2268F9
:1014F0000024204902252048B2F1804F28D01F4BFC
:101500009A4223D10A6842F001020A600A6802F096
:10151000010205920A6842F002020A60096801F0BD
:1015200002010591C0210091CDE901546946CDE940
:101530000345FEF7EFFF03200090CDE9015410486A
:101540006946CDE9034500BFFEF7E4FF07B030BDB3
:101550000A6842F001020A60096801F00101059180
:101560000F210091CDE901540121CDE903416946E4
:10157000EAE700003038024000000240000400406A
:1015800000040240704770B5044690F83C00002605
:101590000D4601280FD0012084F83C006AB1042ACE
:1015A0001DD0082A2FD00C2A3FD00126002084F815
:1015B0003C00304670BD022070BD206801F03AF951
:1015C0002068816941F0080181612068816921F00A
:1015D00004018161206881692A69114311E0206852
:1015E00001F058F92068816941F400618161206847
:1015F000816921F480618161206881692A6941EAF9
:1016000002218161D2E7206801F07AF92068C1697E
:1016100041F00801C1612068C16921F00401C16184
:101620002068C1692A69114311E0206801F09CF922
:101630002068C16941F40061C1612068C16921F479
:101640008061C1612068C1692A6941EA0221C161E2
:10165000ACE710B5040003D094F83D0010B107E0EA
:10166000012010BD002084F83C00204600F01EF848
:10167000022084F83D00211D206801F053F801206C
:1016800084F8460084F83E0084F83F0084F8400067
:1016900084F8410084F8420084F8430084F8440050
:1016A00084F8450084F83D00002010BD7047704765
:1016B00010B50446022249B104290ED0082913D0DE
:1016C00094F84100012816D0012010BD94F83E0086
:1016D0000128F9D184F83E200FE094F83F0001285A
:1016E000F2D184F83F2008E094F840000128EBD1C3
:1016F00084F8402001E084F841200122206801F0B4
:1017000079F816492068164A884201D0904203D1E0
:10171000436C43F4004343642068884213D0B0F123
:10172000804F10D00F4988420DD00F4988420AD00F
:101730000E49884207D0904205D00D49884202D018
:101740000C49884204D1816801F00701062903D0C1
:10175000016841F001010160002010BD000001405E
:10176000000401400004004000080040000C00405C
:1017700000400140001800402DE9F04100682F4969
:10178000884259D12E4C00256089401C02B26281EA
:10179000A089401C01B2A181E089401CE081208A1F
:1017A000401C00B22082638A5B1C6382012A00D144
:1017B00065810A2900D1A581DFF88880192825D103
:1017C00001F0A8FA6070A17801264FF40077012992
:1017D00009D1082807D1012239464046FEF79FFF6C
:1017E000E571E670A570207901280AD16078082893
:1017F00007D1012239464046FEF791FFE571667137
:10180000257160780C2800D1A6712582608A142881
:1018100006D10B49062214310B4800F0EDF9658220
:10182000E089B0F57A7F07D101214046FEF76FFFCE
:10183000207A401C2072E581BDE8F0810000014063
:10184000000000200008024024020020704770477A
:1018500070470000F8B5016804460868CA684B691B
:1018600010F00F0F4FF0000559D003F0010602F4FD
:101870009077374365D0C10705D0D10503D5616C9A
:1018800041F001016164410705D5D90703D0616CBE
:1018900041F002016164810705D5D90703D0616C6D
:1018A00041F004016164010707D502F020013143D2
:1018B00003D0616C41F008016164616C00293AD089
:1018C000800604D5900602D5204601F0C6F82068AF
:1018D0004069616CC0F38010090700D460B32046F2
:1018E00001F094F820684069400621D52068143042
:1018F00050E8001F21F0400140E80012002AF5D115
:10190000E06BA8B172490165E06BFEF7DEFD0028CF
:1019100011D0E06B016D01B0BDE8F04008478306CF
:101920000FD593060DD52046BDE8F84001F095B8D7
:101930002046FFF78DFFF8BD2046FFF789FF65645D
:10194000F8BD266B2023012E7ED1C6067CD5D60697
:101950007AD508684868009048694FF0020640064A
:101960004DD5E26B106840684FF480770004000C9E
:101970003AD0A18D814237D9E085D069B8422DD0C7
:1019800020680C3050E8001F21F4807140E80012FC
:10199000002AF5D12068143050E8001F21F0010121
:1019A00040E80012002AF5D12068143050E8001FEA
:1019B00021F0400140E80012002AF5D184F84230BD
:1019C000256320680C3050E8001F21F0100140E82A
:1019D0000012002AF5D1E06BFEF72EFD6663A08DA4
:1019E000E18D401A81B206E0A18D8142A8D1D06973
:1019F000B842A5D166632046FFF729FFF8BDA08D48
:101A0000E18D401A81B2E08D0028F7D00029F5D091
:101A100020680C3050E8002F22F4907240E8002734
:101A2000002FF5D12068143050E8002F22F0010279
:101A300040E80027002FF5D184F842302563206864
:101A40000C3050E8002F00E006E022F0100240E8E1
:101A50000023002BF3D1CDE705062BD5150629D59C
:101A600094F841002128C9D1A068B0F5805F01D168
:101A70002069B0B1206A411C216221680078486069
:101A8000E08C401E0004000CE084B7D12068C168DF
:101A900021F08001C1602068C16841F04001C1604F
:101AA000F8BD206A0088C0F308004860206A801CE6
:101AB0002062E5E74006F3D55006F1D5CA68204616
:101AC00022F04002CA6084F8413000F00BF9F8BD02
:101AD000FF29000870B5040004D094F841000025E7
:101AE00010B106E0012070BD84F84050204600F09F
:101AF00023F8242084F841002068C16821F40051B3
:101B0000C160204601F00AF82068016921F4904183
:101B100001612068416921F02A0141612068C168A2
:101B200041F40051C1606564202084F8410084F8CC
:101B300042006563002070BD70B586B00446142174
:101B40006846FEF710FC274E226800212648022333
:101B500003240725B2421DD1234A1432166846F0E9
:101B600010061660126802F010020592026842F038
:101B700001020260006802AA00F00100059082E8FC
:101B800032006002CDE9000369461848FEF7C2FC46
:101B900006B070BD164EB242FAD1134A1032166822
:101BA00046F400361660126802F4003205920268AC
:101BB00042F008020260006802AA00F008000590E6
:101BC00082E832006020CDE9000369460948FEF74B
:101BD000A1FC002211462620FEF7A4FF2620FEF7D6
:101BE00093FFD5E70010014030380240000002406A
:101BF00000440040000C024090F84230202B01D0FD
:101C00000220704721B11AB10023036301F00CB820
:101C1000012070470068084988420CD107480078C5
:101C2000E82803D105490120143908700622034928
:101C30000348FFF7E1BF7047004400401400002054
:101C4000240200202DE9F843044690F8410098460C
:101C500016460D46202802D00220BDE8F88385B143
:101C60007EB100206064212084F84100FEF75CFD15
:101C7000A6848146E684A0682027B0F5805F02D064
:101C800003E00120E9E7206910B12E4600250EE0AF
:101C900000260CE08021204600F0E1FFA8B9C6B183
:101CA00016F8010B21684860E08C401EE084E08C4F
:101CB0004B464FF00002CDF800800028EAD14FF0EB
:101CC0004001204600F0CBFF40B184F84170032072
:101CD000C3E735F8020BC0F30800E3E784F841706E
:101CE0000020BAE77047FEE701684A69D24352050F
:101CF0000FD46FF480624A61002140F8301F202227
:101D000042738173026942F004020261017301208F
:101D100070470020704700002DE9F8430446006832
:101D20000D46DDE9089701689846164641F4807132
:101D300001604B4600224FF001112046009700F051
:101D40006BF848B120680068C00502D54FF40070F8
:101D500020640320BDE8F883216805F0FE000861D7
:101D60003B464A461549204600F09EF888B920684F
:101D70004169806900903A464946204600F0F2F8F1
:101D800048B1206C042804D12068016841F4007136
:101D900001600120DEE7F5B2B8F1010F09D021683A
:101DA000300A08613A464946204600F0DBF8002830
:101DB000E7D1206805610020CCE7000002000100A7
:101DC00070B516460D4604461EE02046FFF78CFF10
:101DD00008B1012070BD681C16D0FEF7A5FC801B61
:101DE000A84200D885B920684069C04340070BD598
:101DF000002044F8300F20216173A073216941F065
:101E0000200121612073E4E720684069C043400756
:101E1000DBD4002070BD00002DE9F047984617463E
:101E20000D460446C1F30746DDF820902AE000BFC6
:101E3000B8F1FF3F26D0FEF777FCA0EB0901414542
:101E400002D8B8F1000F1DD12068012E16D080698C
:101E500025EA00000004000C12D00020B84211D185
:101E6000002044F8300F20216173A073216941F0F4
:101E70002001216120730120BDE8F0874069E7E778
:101E80000120EBE72068012E0AD0806925EA0000D6
:101E90000004000C06D00020B842C9D00020EBE7B7
:101EA0004069F3E70120F7E72DE9F0479846164629
:101EB0000D4604464FF000094FF0200AC1F30747D2
:101EC00023E020684069C043400515D420680168BC
:101ED00041F40071016021686FF480604861C4F8CA
:101EE000309084F83DA084F83E90216C41F00401CC
:101EF000216484F83C9021E0701C06D0FEF714FCAD
:101F0000A0EB0800B04203D816B1012F1FD021E08A
:101F10002068012F15D0806925EA00000004000C1C
:101F200018D000BF44F8309F84F80DA084F80E90BC
:101F3000216941F02001216184F80C900120BDE865
:101F4000F087406925EA00000004000CEAD120680F
:101F5000406901E02068806925EA00000004000C67
:101F6000AFD1ECE770B516460D4604461EE020469C
:101F7000FFF7BAFE08B1012070BD681C16D0FEF74D
:101F8000D3FB801BA84200D885B920684069C043B4
:101F900000060BD5002044F8300F20216173A07398
:101FA000216941F0200121612073E4E72068406944
:101FB000C0430006DBD4002070BD00002DE9F05FB7
:101FC000DFF828820024224608214046FEF7A7FBBE
:101FD000874F012211463846FEF7A1FB0122082156
:101FE0003846FEF79CFB0122DFF808925603314683
:101FF0004846FEF794FB804D31462846FEF782FBAB
:102000004FF4806A4FF4006B70B151462846FEF7DA
:1020100079FB48B159462846FEF774FB20B1A91454
:102020002846FEF76FFBC0B931462846FEF76AFB2B
:1020300000B9012451462846FEF764FB00B902248A
:1020400059462846FEF75EFB00B903244FF4805141
:102050002846FEF757FB00B9042401220821404618
:10206000FEF75DFB002201213846FEF758FB0122F6
:1020700008213846FEF753FB012231464846FEF759
:102080004EFB31462846FEF73DFB78B151462846C7
:10209000FEF738FB50B159462846FEF733FB28B10E
:1020A0004FF480512846FEF72DFBC0B93146284633
:1020B000FEF728FB00B9052451462846FEF722FB0F
:1020C00000B9062459462846FEF71CFB00B9072430
:1020D0004FF480512846FEF715FB00B90824012271
:1020E00008214046FEF71BFB012211463846FEF749
:1020F00016FB002208213846FEF711FB012231466B
:102100004846FEF70CFB31462846FEF7FBFA78B14D
:1021100051462846FEF7F6FA50B159462846FEF7D2
:10212000F1FA28B14FF480512846FEF7EBFAC0B916
:1021300031462846FEF7E6FA00B9092451462846FA
:10214000FEF7E0FA00B90A2459462846FEF7DAFA03
:1021500000B90B244FF480512846FEF7D3FA00B99A
:102160000C24012208214046FEF7D9FA012211462B
:102170003846FEF7D4FA012208213846FEF7CFFA96
:10218000002231464846FEF7CAFA31462846FEF795
:10219000B9FA78B151462846FEF7B4FA50B159461B
:1021A0002846FEF7AFFA28B14FF480512846FEF7D3
:1021B000A9FAC0B931462846FEF7A4FA00B90D24A1
:1021C00051462846FEF79EFA00B90E245946284685
:1021D000FEF798FA00B90F244FF480512846FEF715
:1021E00091FA00B910242046BDE8F09F000C02408F
:1021F0000010024000080240000402402DE9F043B4
:1022000087B014216846FEF7AEF841480024016803
:1022100041F010010160016801F0100105910168B1
:1022200041F004010160016801F0040105910168B9
:1022300041F080010160016801F0800105910168B1
:1022400041F001010160016801F00101059101689F
:1022500041F002010160016801F00201059101688D
:1022600041F00801016000682A4F00F00800059065
:10227000012209213846FEF752FADFF89C8001223C
:102280004FF40A514046FEF74AFA00220121404627
:10229000FEF745FADFF884904FF4005600223146ED
:1022A0004846FEF73CFA012208214846FEF737FA75
:1022B000092000900125CDE9015469463846039470
:1022C000FEF728F942F281200090CDE901546946D9
:1022D00040460394FEF71EF94FF470508DE831002C
:1022E00069460F48FEF716F90096CDE90154694694
:1022F00048460395FEF70EF908200090CDE90154F9
:10230000694648460394FEF705F907B0BDE8F08337
:10231000303802400010024000080240000C024029
:10232000000402400D4810B50B4901600C494160A2
:1023300000214FF480428160C0E903124161816154
:10234000C1610162FEF7F6F9002803D0BDE8104034
:10235000FEF770B810BD000000540040B00000202F
:10236000A086010010B586B000241748009401949F
:10237000029403940494134905940160A021C0E9D8
:1023800001144FF47A71C0E9031444618461FEF7CB
:10239000F9FE08B1FEF74EF84FF480500090694600
:1023A0000948FEF795FF08B1FEF744F8049404A924
:1023B00005480594FEF79EFE002801D0FEF73AF886
:1023C00006B010BD000001400401002010B58EB021
:1023D00000240794089409940A940B941C216846DD
:1023E0000C94FDF7C0FF2A484FF080410160532153
:1023F000C0E9011442F20F71C0E903148461FEF7D1
:10240000C1FE08B1FEF716F84FF48050079007A9F7
:102410001F48FEF75DFF08B1FEF70CF81C48FFF7F8
:1024200018F908B1FEF706F80B940BA918480C949C
:10243000FEF760FE08B1FDF7FDFF6020CDE9000466
:1024400002940022694612480494FFF79CF808B1F0
:10245000FDF7F0FF042269460D48FFF794F808B134
:10246000FDF7E8FF082269460948FFF78CF808B134
:10247000FDF7E0FF0C2269460548FFF784F808B134
:10248000FDF7D8FF0248FFF72BF80EB010BD000093
:102490004C01002010B58EB00024079408940994D4
:1024A0000A940B941C2168460C94FDF75CFF2A48A3
:1024B000284901605321C0E9011442F20F71C0E9BB
:1024C00003148461FEF75EFE08B1FDF7B3FF4FF41D
:1024D0008050079007A92048FEF7FAFE08B1FDF7E3
:1024E000A9FF1D48FFF7B5F808B1FDF7A3FF0B944E
:1024F0000BA919480C94FEF7FDFD08B1FDF79AFFF2
:102500006020CDE900040294002269461248049438
:10251000FFF739F808B1FDF78DFF042269460E4830
:10252000FFF731F808B1FDF785FF082269460A4830
:10253000FFF729F808B1FDF77DFF0C226946064830
:10254000FFF721F808B1FDF775FF0348FEF7C8FF54
:102550000EB010BD00040040940100200C4810B5DE
:102560000A4901604FF4E1314160002181600C2291
:10257000C160C0E904128161C161FFF7ABFA0028B4
:1025800003D0BDE81040FDF755BF10BD001001405D
:10259000DC0100200C4810B50A4901604FF4E1311C
:1025A0004160002181600C22C160C0E90412816198
:1025B000C161FFF78FFA002803D0BDE81040FDF796
:1025C00039BF10BD0044004024020020FEE7FEE7B2
:1025D00070B5002404F1B000C0B200F023F8002070
:1025E00000F020F8102000F01DF80025002000F079
:1025F0002BF86D1CEDB2802DF8D3641CE4B2082CCE
:10260000E8D370BD70B5C820FDF772FF044D0024FB
:10261000285D00F007F8641CE4B2172CF8D370BDF5
:102620002F00002001B584B001214FF4807204A86E
:102630008DE807000B46002278210248FEF73EF99C
:1026400005B000BDB000002001B584B001214FF4F9
:10265000807204A88DE807000B46402278210248CA
:10266000FEF72CF905B000BDB000002070477047A0
:10267000FEF7F0B930B593B030216846FDF773FE30
:1026800014210CA8FDF76FFE1D480025016841F0DC
:1026900080510160006800F0805011901948016875
:1026A00041F4804101600068022400F480401190F0
:1026B00001200090000401908001CDE90640042033
:1026C0000890A820CDE9090408200B906846FEF781
:1026D00045FB08B172B6FEE70CA90F2081E8310076
:1026E0004FF4A0500F904FF48050109005210CA88B
:1026F000FEF74AFA002801D072B6FEE713B030BDEB
:1027000040380240007000400248016841F4700106
:102710000160704788ED00E00148FEF748BE000008
:1027200004010020F0B50268274B284D284E294FA0
:10273000294C4FF0804C984209D0604507D0A84200
:1027400005D0B04203D0B84201D0A04204D122F05B
:10275000700E4A6842EA0E0298421BD0604519D0BA
:10276000A84217D0B04215D0B84213D0A04211D021
:102770001A4DA8420ED01A4DA8420BD0194DA842AE
:1027800008D0194DA84205D0184DA84202D0184DC6
:10279000A84203D122F44075CA682A434D6922F049
:1027A00080022A438D68C5620D688562984201D017
:1027B000A04201D109690163016841F0040101608F
:1027C000012141610260F0BD0000014000040040B1
:1027D00000080040000C004000040140004001409F
:1027E000004401400048014000180040001C004027
:1027F0000020004010B501F01F030121046A994038
:102800008C430462016A9A401143016210BD10B505
:10281000846842EA032224F47F440A43224382600C
:1028200010BD826822F070020A4342F00701816005
:1028300070470000F0B5036A026A22F001020262EA
:1028400042688469124E24F073050C682C4323F00F
:1028500002058B682B430D4DA84201D0B04205D133
:1028600023F00807CB683B4323F00403A84201D0C0
:10287000B04205D14D6922F4407215438A692A435A
:1028800042608461496841630362F0BD0000014019
:1028900000040140F0B5026A036A23F010030362EA
:1028A000436884690D6824F4E64444EA05248D688D
:1028B00022F0200242EA05120F4D104EA84201D02C
:1028C000B04206D1CF6822F0800242EA071222F01D
:1028D0004002A84201D0B04207D14D6923F44063C1
:1028E00043EA85038D6943EA85034360846149684F
:1028F00081630262F0BD000000000140000401405D
:10290000F0B5026A036A23F4807303624368C46902
:1029100022F4007224F073050C68124E2C438D686B
:1029200042EA05220E4DA84201D0B04206D1CF683E
:1029300022F4006242EA072222F48062A84201D017
:10294000B04207D14D6923F4405343EA05138D6922
:1029500043EA05134360C4614968C1630262F0BD84
:10296000000001400004014030B5046A026A22F40C
:10297000805202624268C3690D6823F4E64343EA69
:1029800005238D6824F4005444EA0534084DA84218
:1029900002D0084DA84204D14D6922F4804242EA97
:1029A00085124260C36149680164046230BD000061
:1029B000000001400004014010B5036A046A24F0DD
:1029C00001040462846924F0F00444EA021423F050
:1029D0000A020A438461026210BD10B5036A046AE8
:1029E00024F010040462846923F0A00324F47044EA
:1029F00044EA023243EA01118261016210BD10B55E
:102A0000806B0021C185FEF723FF10BD01680C31EA
:102A100051E8002F22F4907241E80023002BF5D1F9
:102A20000168143151E8002F22F0010241E800232F
:102A3000002BF5D1016B012909D101680C3151E856
:102A4000002F22F0100241E80023002BF5D12021B5
:102A500080F8421000210163704708B590F84210D9
:102A6000222901D0022008BD82684FF480539A4287
:102A700001D1016921B1816A9A421BD04AB10AE0B1
:102A80000268816A5268C2F308020A80816A891C5E
:102A900008E0026972B10268526802F07F020A70AF
:102AA000816A491C8162C18D491E0904090CC185D6
:102AB00003D01BE002685268F1E70168CA6822F09F
:102AC0002002CA600168CA6822F48072CA60016884
:102AD0004A6922F001024A61202180F84210002157
:102AE0004163026B012A03D0FFF794F8002008BD70
:102AF000016301680C3151E8002F22F0100241E817
:102B00000023002BF5D101680A68D20602D50A68B5
:102B100049680091818DFEF79AFEE7E770B504469B
:102B200000680169E26821F44051114301612169A3
:102B3000A068E26908436169114308432168CA68D3
:102B400049F20C639A430243CA6020684169A26952
:102B500021F440711143416131492068884202D01B
:102B60003049884202D1FEF7B9F801E0FEF7A6F835
:102B7000E2690023192164253226B2F5004F62680C
:102B800028D0A0FB0101930F9200FDF775FB0146D1
:102B9000B0FBF5F06FF01802504301EB800006EB3C
:102BA0000010B0FBF5F000F0F002B1FBF5F002EB25
:102BB0000012B1FBF5F06FF01803584301EB8000F1
:102BC00006EB0010B0FBF5F000F00F002168104498
:102BD000886070BDA0FB010192185B41FDF74CFBC2
:102BE0000146B0FBF5F00201B1FBF5F06FF0180300
:102BF000584301EB800006EBC000B0FBF5F000F09D
:102C0000F80002EB4002B1FBF5F0584301EB800005
:102C100006EBC000B0FBF5F000F00700D6E70000BF
:102C2000001001400014014081628285C2850021AC
:102C30004164222180F84210016921B10168CA680B
:102C400042F48072CA6001684A6942F001024A6136
:102C50000068C16841F02001C160002070472DE983
:102C6000F843984617460D460446089E24E0701C1B
:102C700022D0FDF759FDA0EB0800B0421AD8CEB122
:102C80002068C168490717D5802D15D0402D13D075
:102C90000168C94309070FD4016800254068009006
:102CA0002046FFF7B3FE0820606484F840500120FE
:102CB000BDE8F8830320FBE72068006835EA0000E0
:102CC00004D00020B842D2D00020F1E70120F9E77B
:102CD0000148FEF7BFBD000024020020FEE70907FF
:102CE000090E002804DB00F1E02080F80014704792
:102CF00000F00F0000F1E02080F8141D70472DED6A
:102D0000020B019820F0004001909DED000B02B0F5
:102D10007047000010B5304C60782070FFF74EF916
:102D20006070217801291ED002291FD0032920D0EC
:102D3000042921D0052922D0062923D0072924D00F
:102D4000082925D0092926D00A2927D00B2928D0DF
:102D50000C2929D00D292AD00E292BD00F292DD0AE
:102D600010292ED02EE040BB012225E028BB0222F4
:102D700022E010BB03221FE0F8B904221CE0E0B9F6
:102D8000052219E0C8B9062216E0B0B9072213E0FF
:102D900098B9082210E080B909220DE068B90A222A
:102DA0000AE050B90B2207E038B90C2204E020B940
:102DB0000D2201E008B90E22A27003E010B90F2223
:102DC000FAE710B1014302D003E01022F4E700203B
:102DD000A070A07810BD00002C000020FDF742FE7E
:102DE000FFF748FCFFF70AFAFFF7BCFAFFF7EEFA25
:102DF000FFF750FBFFF7CEFBFFF794FAFFF7AEFBB0
:102E00001148FEF725FAFFF7FDFBFFF7E1FB00F0A5
:102E100057F800F089FB06220C490D48FEF7ECFE3E
:102E20000A4D0026A5F114044FF4C8772078002835
:102E3000FCD0B5F80100B5F80320F023394600F0C6
:102E40006BF92670F2E70000040100201400002056
:102E50002402002070B5184D184C2DED028B9FED0B
:102E6000148B00F07BFB94ED160B53EC182B51ECFC
:102E7000100B00F0FFFD07D094ED160B51EC100B7A
:102E800000F064FE2968486394ED180B53EC182B8E
:102E900051EC100B00F0EEFD07D094ED180B51EC47
:102EA000100B00F053FE29688863BDEC028B70BDE7
:102EB00000000000000000004C010020480000203D
:102EC00010B500210648FEF7F3FB04210448FEF785
:102ED000EFFBBDE8104008210148FEF7E9BB000008
:102EE0004C01002010B52DED088BB0EE41BAF0EE8C
:102EF00061BA9FED848B854C9FED859B51EC100B47
:102F000094ED0A1B53EC112B00F0BEFF41EC1A0BA1
:102F100053EC1B2B84ED12AB94ED0C0B51EC100B0E
:102F200000F0BEFFC4E9140153EC192B51EC1A0B4D
:102F300000F0A0FD6FD094ED120B53EC192B51EC67
:102F4000100B00F06BFF2BD2B0EE49BAF0EE69BA6D
:102F500094ED120B53EC1B2B51EC100B00F05EFFA9
:102F60001ED894ED120BB0EE48AAF0EE68AA53EC0E
:102F70001A2B51EC100B00F093FFC4E9120194EDF1
:102F80000A0B53EC1A2B51EC100B00F089FF41ECAB
:102F9000100B84ED0A0B94ED0C1BFFF75BFFD7E7DA
:102FA00094ED120BB0EE49BAF0EE69BA53EC1B2B5C
:102FB00051EC100B00F0F8FD2DD294ED120BFFF741
:102FC0009EFE84ED120B1DE094ED120BB0EE48AAAC
:102FD000F0EE68AA53EC1A2B51EC100B00F060FFD6
:102FE000C4E9120194ED0A0B53EC1A2B51EC100BAF
:102FF00000F034FB41EC100B84ED0A0B94ED0C1B3C
:10300000FFF728FF94ED120B53EC1B2B51EC100B28
:1030100000F004FFD8D994ED140B53EC192B51ECAC
:10302000100B00F027FD6AD094ED140B53EC192B14
:1030300051EC100B00F0F2FE2ED220E094ED140BB8
:10304000B0EE48AAF0EE68AA53EC1A2B51EC100B24
:1030500000F026FFC4E9140194ED0C0B53EC1A2B7D
:1030600051EC100B00F01CFFC4E90C010120FDF72E
:103070003FFA94ED0C1B94ED0A0BFFF7EBFE94ED79
:10308000140BB0EE49BAF0EE69BA53EC1B2B51ECBD
:10309000100B00F0C3FED1D994ED140B53EC192B97
:1030A00051EC100B00F080FD29D294ED140BFFF7CA
:1030B00026FE84ED140B19E094ED140B53EC182B41
:1030C00051EC100B00F0ECFEC4E9140194ED0C0B74
:1030D00053EC182B51EC100B00F0C0FA41EC110B23
:1030E00084ED0C1B94ED0A0BFFF7B4FE94ED140B6A
:1030F00053EC192B51EC100B00F090FEDCD9BDEC19
:10310000088B10BD000000000000F03F48000020C8
:1031100000000000000000002DE9F04F16462DEDE4
:103120000C8B054687B01F4688463043E04C16D0CE
:10313000FDF7FAFA0146A068081A00EE100AF8EE48
:10314000400A9FEDDC0ADC4B60EE800A10EE902A0C
:103150009FEDDA9A9A421CDA9FEDD9DA2DE09FEDC5
:10316000D90A84ED010A84ED000A84ED080A84ED91
:10317000070AFDF7D9FA9FEDD40BA060B0EE401A14
:10318000F0EE601AFFF7AEFE07B0BDEC0C8BBDE8A9
:10319000F08F00EE900ACE4BF8EE600A60EE800AE7
:1031A00010EE902A9A4202DDB0EE49DA05E000EE18
:1031B000900AF8EE600A20EE80DA00EE108AA16034
:1031C000DFF810A3F8EE400A00EE105ADFF808B35B
:1031D000B8EE400A30EEC00A60EE090A94ED000A2B
:1031E00000EE8D0A10EE100A9FEDBCBADFEDBCBAFE
:1031F000504502D9B0EE4B0A05E010EE100A5845D2
:1032000001DDB0EE6B0A84ED000A94ED011A60EE68
:10321000899AC4ED010A70EEC11A81EE8D1A9FEDF4
:10322000B1CA40EE0C9ADFEDB0CAB04941EE2C9A1B
:1032300019EE900A9FEDAEAB9FEDAF8B884202D99D
:10324000F9EE049A06E019EE900AAD49884201DDD4
:10325000F1EE049A19EE900A00F00CFF94ED0A1BAF
:1032600053EC112B00F0FAF953EC1A2B00F09CFCF4
:1032700004D2B0EE4A0AF0EE6A0A1FE019EE900A94
:1032800000F0F8FE94ED0A1B53EC112B00F0E6F968
:1032900053EC182B00F0C2FD04D2B0EE480AF0EE59
:1032A000680A0BE019EE900A00F0E4FE94ED0A1BA8
:1032B00053EC112B00F0D2F941EC100B51EC100B38
:1032C00000F09AF900EE107A8146F8EE400A00EE1E
:1032D000106AB8EE400A30EEC00A60EE090A94EDBA
:1032E000070A00EE8D0A10EE100A504502D9B0EE22
:1032F0004B0A05E010EE100A584501DDB0EE6B0AEE
:1033000084ED070A94ED081A20EE899A774970EE49
:10331000C11AC4ED080A00EE0C9A81EE8D1A01EE76
:103320002C9A19EE100A884202D9B9EE049A06E0E6
:1033300019EE100A7249884201DDB1EE049A19EEC5
:10334000100A00F097FE94ED0C1B53EC112B00F0CB
:1033500085F953EC1A2B00F027FC04D2B0EE4A8A10
:10336000F0EE6A8A1AE019EE100A00F083FE94ED7E
:103370000C1B53EC112B00F071F953EC182B00F0DF
:103380004DFD0BD319EE100A00F074FE94ED0C1BEA
:1033900053EC112B00F062F941EC180B51EC180BB7
:1033A00000F02AF900F066FE41EC180B484600F0E8
:1033B00061FE41EC100BB0EE481AF0EE681AFFF710
:1033C00091FDDFED500A504B29EEA00A5A42BDEEA6
:1033D000C00A10EE100A00B2984202DAB0EE4B0AB0
:1033E0000EE010EE100A00B2904202DDB0EE6B0A61
:1033F00006E010EE100A00B200EE100AB8EEC00AA5
:10340000BDEEC00A10EE100A29EE200A00B2BDEE91
:10341000C00A10EE101A09B299420EDB10EE101A13
:1034200009B2914202DDB0EE6BBA06E010EE101A5E
:1034300009B200EE101AB8EEC0BA34A30ECB8DE874
:103440000E008DF802804FEA18218DF803108DF8D8
:103450000450290A8DF80510BDEECB0A8DF8060040
:10346000000A8DF807004FF0FF3510EE104A2B468A
:103470000A2269462848FEF7E5FB28A203AB07CAE3
:1034800083E807008DF80E70380A8DF80F008DF86C
:103490001060300A8DF811008DF81240200A8DF866
:1034A00013002B460A2203A91B48FEF7CBFB6BE651
:1034B000480000206F12833A0AD7A33BCDCCCC3D05
:1034C0000AD7A33B00000000000000000080564027
:1034D000CDCCCC3D0000FAC30000FA430000FAC393
:1034E0000000FA430AD7233CCDCC4C3D0000A0C0DD
:1034F00000000000008046400000000000806640A0
:103500000000A0400000C8420CFEFFFF03FC0000CA
:1035100000000000FC030000DC01002004FB0000B0
:1035200000000000FB0400009FED090B10B5B0EE99
:10353000401AF0EE601AFFF78DFC074940F2145074
:103540000968C863BDE810404FF4FA60FCF7D0BFCB
:1035500000000000008056404C01002010B551ECE6
:10356000100B2DED0A8BB0EE41CAF0EE61CA9FED53
:103570001BBB53EC1B2B00F025F99FED1A9B53EC62
:10358000192B00F04DFB9FED19AB53EC1A2B00F0FB
:1035900065F8184C41EC180B53EC1B2B84ED168B83
:1035A00051EC1C0B00F00EF953EC192B00F038FB1A
:1035B00053EC1A2B00F052F841EC190B51EC180B9C
:1035C00084ED189B00F092FA606151EC190B00F049
:1035D0008DFAA061BDEC0A8B10BD00000000000058
:1035E000008066400000000000409F400000000096
:1035F00000407F404800002021F00042A2F16052CC
:10360000B2F5801F01F0004328BFD2F17F6C0BD9C7
:103610005FEA001C43EAC20242EB507018BF7047D9
:1036200028BF20F001007047B2F5801FBCBF1846CC
:1036300070474FEA410C1CF5001F02D2084600F00B
:103640008FBD70B500F096FB00000089FFF7F6BF54
:103650004FF00040A0F580007047000010B591EADF
:10366000030F48BF83F0004300F12284841A71EBFA
:10367000030C05D2121943EB0C03001B61EB0C0188
:10368000DFF824E14FEA1154A4EB135C1EEA430F68
:1036900018BF9EEA445F73D023EA0E03DCF1200ECC
:1036A00021EA045143F4801332D322FA0CFE10EBCA
:1036B0000E0023FA0CFE41EB0E01CCF1200E03FAB2
:1036C0000EFE10EB0E0051F10001B1F5801FCCF1A0
:1036D000200E32D201EB045112FA0EF2BDE8104076
:1036E00058BF7047401C38BF5FEA420218BF70479E
:1036F000002814BF20F0010041F100014FEA41030E
:1037000013F5001F38BF7047A1F1C04100F080BB26
:10371000012A43EB0302ACF1200CDCF11F0E32BF97
:103720004FF0000E23FA0CF310EB030041EB0451B1
:10373000B4EB115FD0D0A1EB045101F58011490821
:103740005FEA300001EB04510ED350F1000038BFA6
:1037500012FA0EFE08D1BDE81040C9E7401C38BF80
:103760005FEA4202CAD1C3E7BDE810404FEA410315
:1037700013F5001F38BF7047A1F1C04100F048BBEE
:103780009EEA445F08D011EA5E0FBDE8104004BF16
:1037900001F0004100207047BDE8104070B500F016
:1037A000E9FA00BF64FBBE3E0000E0FF491058BFCD
:1037B000C1F140415B1058BFC3F140438B42EFF36E
:1037C000008070472DE9C04130B4DFF8A0C23CEA68
:1037D000111418BF3CEA131400F0EC8081EA0305D1
:1037E0001CEA111444EAD57418BF1CEA131500F042
:1037F000C780A4EB05044FF0004545EAC12145EA26
:10380000C32341EA505143EA525304F17F74994271
:1038100004F500344FEAC0204FEAC22208BF9042AC
:1038200000F09C804FEA13650FF24016765D4FEA78
:10383000134506FB05F7C7F1807706FB07F74FEA4C
:10384000D737A7FB03687642C8F58038A7FB06CEBA
:1038500038BFA8F1010807FB08E64FF0000EA6FBF1
:10386000028CE6FB03CEDCF1000CCEF1004E38BF3B
:10387000AEF1010EA6FB0C584FF000074FF000050B
:10388000E6FB0E87A1FB08C6A0FB07CE16EB0E06D3
:1038900045F10005E1FB076515F1E04E7EBFA4F59B
:1038A00080345FEA46066D4116F1800745F1000558
:1038B0004FEA17274FEA066647EA0567A6F1DE4694
:1038C000B6F1805F4FEA15251FD9384624F0010C68
:1038D00005EBC471BCF1FE6F01EB0C1102D8F0BC1A
:1038E000BDE8008124425CBF01F5801E9EEAC47FD2
:1038F00002D4F0BCBDE80081244238D4F0BCA1F170
:10390000C041BDE8004100F083BA4FEAD22242EA4A
:1039100043524FEAD323A7FB02864FEAD02040EA66
:10392000415007FB03661EEA0E0F4FEAD12105FB4B
:10393000026658BFA6EB0056B6EB00564FEA520E91
:103940004EEAC37E18EB0E0E56EB530EBDD518EBA8
:1039500002085E417F1C55F10005B6E74FF4801563
:103960004FF000074FF000064FF00008ADE7F0BC45
:103970004FF0000001F1C04101F00041BDE80081BD
:1039800011EA0C1F0CEA131500D00CE013EA0C1F0F
:1039900000F025804FF00000F0BC81EA030101F047
:1039A0000041BDE80081F0BCBDE8004181EA0301AF
:1039B00000F02EBAF0BCBDE8004170B500F0DAF9B5
:1039C000097EFC3E00F007B881EA03014FF00000D9
:1039D00001F00041704781EA030100F019BAF0BC20
:1039E000BDE800414FF0000021497047FFFDFBF9A1
:1039F000F7F5F4F2F0EEEDEBE9E8E6E4E3E1E0DE22
:103A0000DDDBDAD8D7D5D4D3D1D0CFCDCCCBCAC893
:103A1000C7C6C5C4C2C1C0BFBEBDBCBBBAB9B8B7BA
:103A2000B6B5B4B3B2B1B0AFAEADACABAAA9A8A8AD
:103A3000A7A6A5A4A3A3A2A1A09F9F9E9D9C9C9B7B
:103A40009A99999897979695959493939291919026
:103A50008F8F8E8E8D8C8C8B8B8A898988888787B7
:103A60008685858484838382828181800000FF072C
:103A70000000F87F51EA030C17D41CF5801F58BFD3
:103A8000BCF5801F00F10680994218BF704708BF3F
:103A90009042704707D711F5801F58BF13F5801F5C
:103AA00019D499427047894270471CF5801F08D588
:103AB000BCF5801FF7D58B4218BF704708BF824204
:103AC00070474FF4001C1CEB410F38BF1CEB430F39
:103AD00001D28B42704770B500F04CF99224490036
:103AE0004FF000514FF08053FFF760BE4FEA4103A3
:103AF0004FEA5353A3F58063D3F11E03C8BFD3F13C
:103B0000210C0CDD4FF0004242EAC12242EA505241
:103B100032FA03FC8CEAE17CACEBE1707047102BCD
:103B2000C4BF0020704703F5787CBCF1FF3F04D090
:103B30006FF0004282EA2100704770B500F01AF978
:103B40004992248000207047F2E700004FEA1153A9
:103B5000A3F58063D3F11E03A8BFD3F1200C08DBCB
:103B60004FF0004242EAC12252EA505232FA03F0C8
:103B7000704709420BD4102BC4BF0020704703F5D7
:103B8000787CBCF1FF3F05D04FF0FF3070474FF01D
:103B90000000704770B500F0EDF800BF4992248036
:103BA00000207047F0E7000051EA030C17D41CF521
:103BB000801F58BFBCF5801F00F10680994218BFD6
:103BC000704708BF9042704707D711F5801F58BF54
:103BD00013F5801F19D499427047894270471CF52C
:103BE000801F08D5BCF5801FF7D58B4218BF7047E2
:103BF00008BF824270474FF4001C1CEB410F38BFD6
:103C00001CEB430F01D28B42704770B500F0B2F845
:103C1000922449004FF000514FF08053FFF7C6BD8A
:103C2000DFF848C170B51CEA111E1EBF1CEA13154F
:103C30009EEA0C0F95EA0C0F00F06F8081EA0304F6
:103C400023EA4C134EEAD47E21EA4C1141F4801150
:103C500043F48013AE44A1FB024CA0FB0365AEF11C
:103C60007F7E361955EB0C05A1FB034C4CF100038C
:103C7000A0FB021C16EB0C06654153F10003094240
:103C800018BF46F0010613F4007F0BD14FEA033151
:103C90004FEA0530340341EA155140EA16506FF0FF
:103CA00003020AE04FEAC3214FEAC520F40241EAC9
:103CB000555140EA56506FF0020202EB2E4201EBE2
:103CC000025585EACE710AD05FEA440C18BF24F091
:103CD000004450F1000041F1000120EAD47040F2AC
:103CE000FE7C624500D270BDA84214BF4FF08044F4
:103CF0004FF04044002E08BF0024BEF1806FA8BFE3
:103D0000A1F1C041BDE8704080F282804FF0000018
:103D100001F1C04101F0004170479EEA0C0F0CEA2E
:103D2000131518BF95EA0C0F06D04FF0000081EA7A
:103D3000030E0EF0004170BD00F01CF88900013E3A
:103D400000F007B800F009B84FEA430C5FEA5C5C8A
:103D500008D081EA030100F05BB84FEA410C5FEA4A
:103D60005C5CF6D14FF00000014970470000FF078E
:103D70000000F87F0EF1020E2EF0030E5EF8046BC9
:103D8000364205D4012A43EB030515F5001F12D86E
:103D9000012841EB010C1CF5001F0CD80ED14FEA95
:103DA000D17C15F5001F0CEB4C0C0CF1020C08BF7C
:103DB0004CEBD37C04E04FF0080C01E04FEAD37CDD
:103DC0000CEB4C0526FA05F606F00706B6F1040CD6
:103DD00006D20EEB860CBDE870404CF0010C60473B
:103DE000DFE80CF0090B02024FF000414FF0000039
:103DF000A1F5002170BD19461046012851EB0104C0
:103E000018BFD4F5001484BF002001F0004170BD3C
:103E10000808A0F500114FEA3101704753EA010C80
:103E200017D41CF5801F58BFBCF5801F00F1068019
:103E30008B4218BF704708BF8242704707D713F5FF
:103E4000801F58BF11F5801F19D48B4270479B42C9
:103E500070471CF5801F08D5BCF5801FF7D5994227
:103E600018BF704708BF904270474FF4001C1CEB0E
:103E7000430F38BF1CEB410F01D2994270470FB47A
:103E80000CBC03BCFFF7C1BE91EA030F10B581F073
:103E900000413FF5EBAB83F0004300F009B80000B0
:103EA00010B591EA030F48BF83F000433FF5DEAB46
:103EB000841A71EB030C07D212198CF0004C43EBFF
:103EC0000C03001B61EB0C01DFF8A4E14FEA115475
:103ED000A4EB135C1EEA430F18BF9EEA445F00F098
:103EE000B08023EA6E03524221EA0451C3EB6E0311
:103EF00038BF5B1EDCF1200E25D322FA0CFE10EB3E
:103F00000E0043FA0CFE41EB0E01CCF1200E03FA39
:103F10000EFE10EB0E0051F10001CCF1200E29D461
:103F200012FA0EF201EB0451BDE8104058BF704781
:103F3000401C1CBFB2F1004F704700280CBF491C49
:103F400020F00100704712EB020E43EB030218BF92
:103F50004FF0010E4EEA4202ACF1200CDCF11E0ED5
:103F600054D943FA0CFE10EB0E0051F1FF31CCF1A5
:103F70001E0ED5D50EF1010E12FA0EFE404141EB98
:103F8000010101EB445C5FEA5C5C10D910EBDE7070
:103F900001EB045138BFBEF1004FBDE8104018BF1F
:103FA000704700280CBF491C20F00100704730D238
:103FB0004FEAD42C11F5001124F400641BD0B1FA9F
:103FC00081F20B3AA41AA41ED2F12003914030FAD8
:103FD00003F31943904001EBCC71002C01EB045129
:103FE000BDE81040A8BF704701F1C0414FF000008C
:103FF00001F000417047B0FA80F310FA03F100D1EC
:1040000010BDE41A173C4805C90AE4E701EB045166
:1040100010BD491001EB0451BDE810404FEA3000DB
:1040200002E04FF0000170474A0008BF0042F8D09C
:10403000B2F5001F28BF704701F000414FF00000AB
:1040400070479EEA445F07D011EA5E0FBDE810405A
:1040500004BF002100207047BDE8104070B5FFF795
:1040600089FE00BF40DFF63E83F0004110467047F6
:104070000000E0FF43004FEAD30C4FEA3C0C434002
:104080001FBF40070CF1605113F0FE4F70471CF04A
:10409000006F03D100200CF0004170470CF000438A
:1040A00043EA507010B540EACC0000F00EF800BFB3
:1040B000000000924FEA0001FFF7AABE4FF0004156
:1040C0004FF00000A1F5002170470EF1020E2EF016
:1040D000030E5EF8044B244204D44FEA4102B2F1CD
:1040E0007F4F11D84FEA4003B3F17F4F0CD80ED168
:1040F0004FEAD07CB2F17F4F0CEB4C0C0CF1020C70
:1041000008BF4CEBD17C04E04FF0080C01E04FEA13
:10411000D17C0CEB4C0324FA03F404F00704B4F153
:10412000040C06D20EEB840CBDE810404CF0010CE0
:104130006047DFE80CF0070802024FF00040A0F5EE
:10414000800010BD0846420018BFD2F1807288BFBF
:1041500000F0004010BD4FF04070E1EE100A7047D3
:10416000FF2141EAD050C005704700000000000068
:104170000000010203040607080900000000010214
:1041800003040000A441000800000020B00000006B
:10419000C401000854420008B000002020080000BC
:1041A000E001000800000000000000000000000026
:1041B00000000000000000000000000000000000FF
:1041C0000100000010000000000000000024F400C6
:1041D000000000AED580A83FD30040A1C8DA12810C
:1041E000CFD9F1DB40A4A68D14AF00000000000081
:1041F00000000000000000000000000000000000BF
:1042000000000000000000000000000000000000AE
:104210000000000000000000008056400000000088
:104220000080564000000000000000000000000078
:10423000000000000000000000000000000000007E
:10424000000000000000000000000000000000006E
:04425000000000006A
:040000050800018965
:00000001FF
